:100000000C9462000C947F000C947F000C947F0091
:100010000C947F000C947F000C947F000C947F0064
:100020000C947F000C947F000C947F000C947F0054
:100030000C947F000C947F000C947F000C947F0044
:100040000C9440010C947F000C947F000C947F0072
:100050000C947F000C947F000C947F000C947F0024
:100060000C947F000C947F00000000002300260009
:10007000290000000000240027002A0000000000E2
:10008000250028002B0004040404040404040202D4
:100090000202020203030303030301020408102007
:1000A0004080010204081020010204081020000012
:1000B0000008000201000003040700000000000027
:1000C0000000640211241FBECFEFD8E0DEBFCDBF19
:1000D00021E0A0E0B1E001C01D92A433B207E1F736
:1000E00010E0C2E6D0E004C02197FE010E94980211
:1000F000C136D107C9F70E948A010C949E020C9464
:100100000000833081F028F4813099F08230A9F02A
:1001100008958730A9F08830C9F08430B1F4809117
:1001200080008F7D03C0809180008F778093800056
:10013000089584B58F7784BD089584B58F7DFBCFF6
:100140008091B0008F778093B00008958091B000C7
:100150008F7DF9CF0F931F93CF93DF93EC014D81E8
:100160005E816F8178852FB7F894809130019091EE
:100170003101A0913201B09133012FBF841795074F
:10018000A607B70708F442C0288130E0F901E2551C
:10019000FF4F8491F901E656FF4F0491F901EA57A8
:1001A000FF4F1491112309F43CC081110E9481007A
:1001B000E12FF0E0EE0FFF1FE859FF4FA591B4913A
:1001C000EC910E2331E020E009F430E0832F922FF0
:1001D0002B8128171906D1F02FB7F89480913001A0
:1001E00090913101A0913201B09133012FBF29814B
:1001F0003A81820F931FA11DB11D8D839E83AF8312
:10020000B8878B8191E089278B839C838B818111B7
:100210000BC08C8181111C82DF91CF911F910F91B6
:10022000089590E080E0D4CF80E0F6CFCF93DF93C5
:10023000FC01808190E0FC01E656FF4F24918A5733
:100240009F4FFC0184918823C1F090E0880F991F93
:10025000FC01EE58FF4FC591D491FC01E458FF4FCB
:10026000A591B4919FB7F8943881822F809583230C
:100270008883EC91E22BEC939FBFDF91CF9108959F
:100280001F920F920FB60F9211242F933F938F93CB
:100290009F93AF93BF938091300190913101A091D2
:1002A0003201B091330130912F0123E0230F2D371C
:1002B00058F50196A11DB11D20932F0180933001A7
:1002C00090933101A0933201B093330180912B01BF
:1002D00090912C01A0912D01B0912E010196A11DAC
:1002E000B11D80932B0190932C01A0932D01B0930D
:1002F0002E01BF91AF919F918F913F912F910F90C0
:100300000FBE0F901F90189526E8230F0296A11D8F
:10031000B11DD2CF789484B5826084BD84B58160EC
:1003200084BD85B5826085BD85B5816085BD8091C0
:100330006E00816080936E00109281008091810038
:100340008260809381008091810081608093810030
:10035000809180008160809380008091B1008460F2
:100360008093B1008091B00081608093B000809153
:100370007A00846080937A0080917A008260809312
:100380007A0080917A00816080937A0080917A006F
:10039000806880937A001092C10082E291E00E940E
:1003A000160189E191E00E94160180E191E00E942E
:1003B000160187E091E00E94160127E0CAE9D0E02B
:1003C00006E810E0FE013491F8018491882399F049
:1003D00090E0880F991FFC01EE58FF4FA591B49152
:1003E000FC01E458FF4F859194918FB7F8949C914C
:1003F000392B3C938FBF215029F7772473943EEA21
:10040000C32E30E0D32E40E0A42E40E0B42E66246C
:10041000639482E291E00E94AA00882379F06092BE
:100420000001109204018FB7F8944091300150916F
:10043000310160913201709133018FBF89E191E008
:100440000E94AA00882329F08091010187258093CA
:10045000010180E191E00E94AA0087E091E00E9402
:10046000AA0090E0E92E91E0F92E27E0822EF60115
:100470008491FE019490F80144904420B1F0F7017A
:10048000508081110E948100E42DF0E0EE0FFF1FEB
:10049000E458FF4FA591B4918FB7F8949C915110F7
:1004A00011C0909499229C928FBF8A94FFEFEF1A0B
:1004B000FF0A8110DCCFA114B10409F4AACF0E9475
:1004C0000000A7CF992AEFCFE2E2F1E08AE0808333
:1004D00024EF31E03283218381E08383148215820B
:1004E000168217821086E9E1F1E09BE09083328367
:1004F0002183838314821582168217821086E0E19D
:10050000F1E09CE0908332832183838314821582FF
:10051000168217821086E7E0F1E09DE09083328337
:100520002183838314821582168217821086089590
:10053000EE0FFF1F0590F491E02D0994F894FFCF82
:00000001FF
