:1000000002C100002EC100002CC100002AC1000066
:1000100028C1000026C1000024C1000022C1000048
:1000200020C100001EC100001CC100001AC1000058
:1000300018C1000016C1000014C1000012C1000068
:1000400010C100000EC100000CC100000AC1000078
:1000500008C1000006C1000004C1000099C40000EE
:1000600000C1000008C50000DDC40000FAC00000A7
:10007000F8C00000F6C00000F4C00000F2C00000AC
:10008000F0C00000EEC00000ECC00000EAC00000BC
:10009000E8C00000E6C00000E4C00000E2C00000CC
:1000A000E0C00000DEC00000DCC00000DAC00000DC
:1000B000D8C00000D6C00000D4C00000D2C00000EC
:1000C000D0C00000CEC00000CCC00000CAC00000FC
:1000D000C8C00000C6C00000C4C00000C2C000000C
:1000E000C0C00000000020002300260029002C00D2
:1000F0002F00320000010000030106010901000089
:100100002100240027002A002D00300033000101C7
:100110000000040107010A01000022002500280058
:100120002B002E00310034000201000005010801FF
:100130000B0105050505070508080808020202026B
:100140000A0A080804040404010101010101010173
:100150000303030303030303040707070C0C0C0C3E
:100160000C0C0C0C02020202060606060606060627
:100170000B0B0B0B0B0B0B0B0102102020080810B4
:100180002040102040800201020108040201010207
:1001900004081020408080402010080402018004E0
:1001A000020180402010080402010804020101023B
:1001B0000408102040800102040810204080000044
:1001C0000A0B02090C0D0E080703040100000000D1
:1001D000000000000000000000000000000000001F
:1001E00000000000000000000000121110000000DC
:1001F00000000000000000000000000000000000FF
:1002000000000000710511241FBECFEFD1E2DEBF58
:10021000CDBF00E00CBF13E0A0E0B2E0E2ECFFE0F5
:1002200000E00BBF02C007900D92AE35B107D9F7C1
:1002300024E0AEE5B3E001C01D92AC34B207E1F7B3
:1002400011E0C3E0D1E000E005C021970109802F53
:10025000FE01ADD6C230D10780E00807B1F7D1D496
:10026000AEC6CECE8150823108F059C0E82FF0E002
:100270008827E35CFE4F8F4F9AC65D0161014F01F5
:10028000550159018F0164016A016E017401780101
:100290007C01820186018F018A0190019401809185
:1002A00080008F77809380000895809180008F7DFB
:1002B000F9CF80918000877FF5CF84B58F7784BD9B
:1002C000089584B58F7DFBCF8091B0008F778093A8
:1002D000B00008958091B0008F7DF9CF809190009B
:1002E0008F77809390000895809190008F7DF9CF53
:1002F00080919000877FF5CF8091A0008F778093C9
:10030000A00008958091A0008F7DF9CF8091A0007A
:10031000877FF5CF809120018F778093200108950A
:10032000809120018F7DF9CF80912001877FF5CFCB
:100330001F93CF93DF93282F30E0F901E254FE4F53
:100340008491F901E858FE4FD491F901EE5CFE4F1B
:10035000C491CC23A1F0162F811184DFEC2FF0E0A3
:10036000EE0FFF1FE85EFE4FA591B4918FB7F89492
:10037000EC91111108C0D095DE23DC938FBFDF9183
:10038000CF911F910895DE2BF8CF2FB7F89460918D
:1003900063037091640380916503909166032FBF9E
:1003A0000895AF92BF92CF92DF92EF92FF920F9398
:1003B0001F93CF93DF936C017B018B01040F151FFB
:1003C000EB015E01AE18BF08C017D10759F0699163
:1003D000D601ED91FC910190F081E02DC6011995B7
:1003E000892B79F7C501DF91CF911F910F91FF9074
:1003F000EF90DF90CF90BF90AF900895FC01538DA8
:10040000448D252F30E0842F90E0821B930B5417EE
:1004100010F0CF96089501970895FC01918D828D7B
:10042000981761F0A28DAE0FBF2FB11D5D968C9114
:10043000928D9F5F9F73928F90E008958FEF9FEF53
:100440000895FC01918D828D981731F0828DE80F0F
:10045000F11D858D90E008958FEF9FEF0895FC01C9
:10046000918D228D892F90E0805C9F4F821B910996
:100470008F739927089587E693E0F1DF21E0892BB8
:1004800009F420E0822F0895FC01A48DA80FB92F54
:10049000B11DA35ABF4F2C91848D90E001968F73AC
:1004A0009927848FA689B7892C93A089B1898C91CB
:1004B000837080648C93938D848D981306C002881A
:1004C000F389E02D80818F7D80830895EF92FF92E4
:1004D0000F931F93CF93DF93EC0181E0888F9B8D67
:1004E0008C8D98131AC0E889F989808185FF15C021
:1004F0009FB7F894EE89FF896083E889F989808144
:100500008370806480839FBF81E090E0DF91CF9112
:100510001F910F91FF90EF900895F62E0B8D10E034
:100520000F5F1F4F0F731127E02E8C8D8E110BC0A4
:100530000FB607FCFACFE889F989808185FFF5CFEE
:10054000CE01A2DFF2CFEB8DEC0FFD2FF11DE35AB0
:10055000FF4FF0829FB7F8940B8FEA89FB89808167
:100560008062D0CFCF93DF93EC01888D8823B1F0E8
:10057000AA89BB89E889F9898C9185FD03C08081AE
:1005800086FD0CC00FB607FCF7CF8C9185FFF2CF2C
:10059000808185FFEDCFCE0177DFEACFDF91CF916C
:1005A000089580E090E0892B21F065DF81110E94A1
:1005B000000080E090E0892B49F080E090E0892BFA
:1005C00029F00E94000081110E94000080E090E06C
:1005D000892B49F080E090E0892B29F00E940000EF
:1005E00081110E94000080E090E0892B49F080E0BA
:1005F00090E0892B29F00E94000081110C940000EA
:100600000895CF92DF92EF92FF920F931F93CF93B3
:10061000DF93EC01CD80DE80EF80F884B6DE6C15D0
:100620007D058E059F0508F436C0288130E0F9016C
:10063000E254FE4F8491F901E858FE4F0491F9010C
:10064000EE5CFE4F14911123A9F181110BDEE12F15
:10065000F0E0EE0FFF1FEC51FF4FA591B491EC912C
:100660000E2331E020E009F430E0832F922F2B811C
:100670002817190681F089DE29813A81620F731FDC
:10068000811D911D6D837E838F8398878B8191E07F
:1006900089278B839C838B8181110FC08C81811171
:1006A0001C82DF91CF911F910F91FF90EF90DF900F
:1006B000CF90089590E080E0DACF80E0F2CFCF9342
:1006C000DF93FC01808190E0FC01E858FE4F24910B
:1006D0008E5C9E4FFC0184918823C1F090E0880FCE
:1006E000991FFC01E250FF4FC591D491FC01E85ED7
:1006F000FE4FA591B4919FB7F8943881822F8095D1
:1007000083238883EC91E22BEC939FBFDF91CF9101
:100710000895FC0101900020E9F73197AF01481BD3
:10072000590BBC0187E693E03CCE8F929F92AF922B
:10073000BF920F931F93CF93DF93CDB7DEB7A197EF
:100740000FB6F894DEBF0FBECDBF19A2423008F439
:100750004AE08E010F5D1F4F842E912CB12CA12CED
:10076000A501940102D4E62FB901CA01EA30ECF4E4
:10077000E05DD801EE938D01232B242B252B81F7EF
:1007800090E080E0109711F0CD01C3DFA1960FB685
:10079000F894DEBF0FBECDBFDF91CF911F910F91B7
:1007A000BF90AF909F908F900895E95CE2CFCF9378
:1007B000DF93AFDFEC018BE292E0ABDF8C0F9D1F8C
:1007C000DF91CF91089583E494E01BDF882361F0EB
:1007D0008EE292E0ECDF80910302813009F05EC08E
:1007E00080930102109200028AE394E00ADF8823DA
:1007F00061F08FE392E0DBDF80910B02813009F042
:100800004FC0809309021092080281E394E0F9DE60
:10081000882369F080E592E0CADF80910302882393
:1008200009F440C081E0809301028093000288E2D5
:1008300094E0E7DE882361F081E692E0B8DF809102
:100840000B028823A1F181E08093090280930802C2
:100850008FE194E0D6DE882331F082E792E0A7DFD3
:1008600083E08093010286E194E0CBDE882331F0BF
:1008700083E892E09CDF83E0809309028DE094E0BE
:10088000C0DE882319F084E992E091DF84E094E0EF
:10089000B8DE882389F085EA92E089CF83E0A0CF93
:1008A00083E0AFCF82E08093010281E0BECF82E09F
:1008B0008093090281E0CACF0895CF92DF92EF9230
:1008C000FF92CF93DF936C01990FEE08FF08F7FEBC
:1008D0001CC06DE287E693E0F9DDEC01662777271F
:1008E000CB016C197D098E099F094AE01EDFC80FF4
:1008F000D91F8BE292E00DDF8C0F9D1FDF91CF910E
:10090000FF90EF90DF90CF9008954AE0C701B601C5
:100910000CDFEC01EECFCF93C82F86EB92E0F9DE2F
:100920002C2F2150330BC901C8DF61E08C2F00DD73
:1009300060E084E08C0FCF91FBCCCF93C82F25DDF6
:10094000643671058105910580F085EC92E0E1DE69
:100950002C2F2150330BC901B0DF60E08C2FE8DC75
:1009600061E084E08C0FCF91E3CCCF910895CF93D9
:10097000DF93682F70E090E080E04AE0D6DEEC0183
:100980008BE292E0C6DE8C0F9D1FDF91CF91089520
:100990001F920F920FB60F9211242F933F938F93B4
:1009A0009F93AF93BF938091630390916403A09151
:1009B0006503B09166033091620323E0230F2D3766
:1009C00058F50196A11DB11D209362038093630326
:1009D00090936403A0936503B093660380915E03D4
:1009E00090915F03A0916003B09161030196A11DF6
:1009F000B11D80935E0390935F03A0936003B09357
:100A00006103BF91AF919F918F913F912F910F9073
:100A10000FBE0F901F90189526E8230F0296A11D78
:100A2000B11DD2CF1F920F920FB60F9211240BB6A9
:100A30000F922F933F934F935F936F937F938F9377
:100A40009F93AF93BF93EF93FF9387E693E01CDDF3
:100A5000FF91EF91BF91AF919F918F917F916F9196
:100A60005F914F913F912F910F900BBE0F900FBE52
:100A70000F901F9018951F920F920FB60F9211248E
:100A80000BB60F922F938F939F93EF93FF93E09169
:100A90007703F09178038081E0917D03F0917E03EC
:100AA00082FD1DC09081809180038F5F8F732091A4
:100AB0008103821741F0E0918003F0E0E959FC4F97
:100AC000958F80938003FF91EF919F918F912F914C
:100AD0000F900BBE0F900FBE0F901F901895808146
:100AE000F2CFE7E6F3E01382128288EE93E0A0E013
:100AF000B0E084839583A683B7838DE192E09183F0
:100B0000808385EC90E09587848784EC90E09787DC
:100B1000868780EC90E0918B808B81EC90E0938BCA
:100B2000828B82EC90E0958B848B86EC90E0978BA7
:100B3000868B118E128E138E148EE3E4F4E086E31E
:100B400080832AEF30E03283218381E08383148223
:100B50001582168217821086EAE3F4E09AE3908306
:100B60003283218383831482158216821782108632
:100B7000E1E3F4E097E3908332832183838314825B
:100B80001582168217821086E8E2F4E09BE39083D8
:100B90003283218383831482158216821782108602
:100BA000EFE1F4E098E3908332832183838314821E
:100BB0001582168217821086E6E1F4E09CE39083AA
:100BC00032832183838314821582168217821086D2
:100BD000EDE0F4E099E390833283218383831482F0
:100BE0001582168217821086E4E0F4E09DE390837C
:100BF00032832183838314821582168217821086A2
:100C00000895789484B5826084BD84B5816084BD84
:100C100085B5826085BD85B5816085BD80916E009A
:100C2000816080936E0010928100809181008260CB
:100C30008093810080918100816080938100809108
:100C400080008160809380008091B10084608093F7
:100C5000B1008091B00081608093B00080919100DC
:100C600082608093910080919100816080939100D7
:100C7000809190008160809390008091A1008260BB
:100C80008093A1008091A10081608093A100809158
:100C9000A00081608093A0008091210182608093F8
:100CA00021018091210181608093210180912001A7
:100CB00081608093200180917A00846080937A0023
:100CC00080917A00826080937A0080917A008160BE
:100CD00080937A0080917A00806880937A001092E5
:100CE000C10083E494E0EBDC8AE394E0E8DC81E398
:100CF00094E0E5DC88E294E0E2DC8FE194E0DFDC84
:100D000086E194E0DCDC8DE094E0D9DC84E094E0E2
:100D1000D6DCE0917703F091780382E08083E09164
:100D20007303F09174031082E0917503F0917603E0
:100D30008FEC808310927F03E0917B03F0917C0322
:100D400086E08083E0917903F0917A03808180616D
:100D50008083E0917903F0917A03808188608083B9
:100D6000E0917903F0917A03808180688083E0913B
:100D70007903F0917A0380818F7D808384ED92E006
:100D800016DD21DDC1E1D2E00AE112E08991282FD0
:100D900030E0F901E858FE4F44912E5C3E4FF901D6
:100DA0002491222399F030E0220F331FF901E25001
:100DB000FF4FA591B491F901E85EFE4F2591349162
:100DC0009FB7F894EC91E42BEC939FBF61E0B0DA0D
:100DD0000C171D07D9F682E0D82E93E0C92E01E04A
:100DE00022E0F22E33E0E32EEEDCC0E0D2E010E0B1
:100DF00089818130A1F148F1823009F465C08330E6
:100E000009F47FC028961130F1F4809110028823F4
:100E1000C1F0BBDA643671058105910590F0E0926E
:100E20000102F0920202109210028FE493E0BFDC04
:100E3000E0920902F0920A02109210028FE493E00D
:100E4000B6DCAFDBD1CF11E0D3CF8A818823D1F2DA
:100E50001A8286EE92E05DDC812F89DDD3CF8A8114
:100E60008130B1F083EF92E054DC812F80DD8DDAA8
:100E7000643671058105910518F082E0810F4BDD24
:100E800084DA6C837D838E839F8389818A83BACF42
:100E90007CDA8C809D80AE80BF80681979098A09D0
:100EA0009B09683873418105910508F4ABCF85E053
:100EB00093E02FDC812F5BDD1B828881882311F07A
:100EC000D982A0CF19829ECF8A81823049F086E1F3
:100ED00093E01FDC812F4BDD84E0810F2EDDD0CF2E
:100EE00054DA8C809D80AE80BF80681979098A09A8
:100EF0009B09603177428105910508F483CFC9824F
:100F000081CF888181110BC086E293E002DC812FC2
:100F10002EDD82E0810F11DD19820B8373CF8A8170
:100F2000833099F032DA643671058105910518F045
:100F300084E0810FF0DC8A81823009F063CF87E39F
:100F400093E0E7DB812F13DD9BCF1FDA8C809D8040
:100F5000AE80BF80681979098A099B09603D774096
:100F60008105910508F44ECFCFCFA1E21A2EAA1B1E
:100F7000BB1BFD010DC0AA1FBB1FEE1FFF1FA21749
:100F8000B307E407F50720F0A21BB30BE40BF50B46
:100F9000661F771F881F991F1A9469F760957095CF
:100FA000809590959B01AC01BD01CF010895EE0F96
:100FB000FF1F881F8BBF0790F691E02D1994F894BE
:020FC000FFCF61
:100FC200010000000000000000000000000000001E
:100FD200010203040506070809000000006602D1A9
:100FE20001FE01B2022F020D0221020D0A0042751A
:100FF20074746F6E20302070726573736564004282
:101002007574746F6E20312070726573736564003D
:10101200427574746F6E20322070726573736564EA
:1010220000427574746F6E2033207072657373653D
:101032006400427574746F6E20342070726573732D
:10104200656400427574746F6E203520707265732A
:1010520073656400427574746F6E20362070726519
:101062007373656400427574746F6E2037207072FA
:1010720065737365640056616C766520636C6F738B
:1010820065643A200056616C7665206F70656E6506
:10109200643A200041726475696E6F20436F6E6E10
:1010A200656374656400506973746F6C206F666663
:1010B2003A2000506973746F6C206C6F77657269A7
:1010C2006E673A2000506973746F6C206C6F77659D
:1010D2007265643A20005374617274696E672063AA
:1010E2006173743A20004C696674696E6720706996
:1010F20073746F6C3A200044657072657373757215
:10110200697A696E6720706973746F6C3A20005057
:0E111200726F6772616D207265736574000004
:00000001FF
